:100000000C942A000C9447000C9447000C94470071
:100010000C9447000C9447000C9447000C94470044
:100020000C9447000C9447000C9447000C94470034
:100030000C9447000C9447000C9447000C94470024
:100040000C9447000C9447000C9447000C94470014
:100050000C94470011241FBECFE5D8E0DEBFCDBF12
:1000600010E0A0E6B0E0EAEAFCE002C005900D92E4
:10007000A038B107D9F710E0A0E8B0E001C01D92A8
:10008000A43EB107E1F70E9413020C9453060C94AE
:10009000000020E030E00DC0FFCFF901E058FF4F35
:1000A00080839183A283B3832C5F3F4F2432310539
:1000B00069F0F901E056FF4F80819181A281B381FF
:1000C0008A309105A105B10540F7E6CF1092A40052
:1000D0001092A5001092A6001092A7001092C400E2
:1000E0001092C5001092C6001092C70008950F9399
:1000F0001F93DF93CF93CDB7DEB72A970FB6F8944F
:10010000DEBF0FBECDBF8C01DE011196E0E6F0E050
:100110008AE001900D928150E1F781E060E0AE014C
:100120004F5F5F4F0E948B05C8010E94BF042A9653
:100130000FB6F894DEBF0FBECDBFCF91DF911F91F8
:100140000F9108958F929F92AF92BF92CF92DF92BC
:10015000EF92FF920F931F93DF93CF93CDB7DEB74C
:10016000A0970FB6F894DEBF0FBECDBF5BE7C52EDC
:1001700050E0D52EBB244E010894811C911CD6C0A2
:10018000D6018C91E81709F0BFC0EA3269F0EB3272
:1001900020F4E53209F0B7C02BC0EB3209F456C0A9
:1001A000ED3209F0B0C082C00B2D10E0000F111F1E
:1001B000000F111F080D191DEE0CFF1CEE0CFF1C8B
:1001C000F701EC53FF4F88EC90E0E80EF91ED701E1
:1001D0006D917D918D919C912081318142815381DE
:1001E0000E94CD05F80160837183828393838BC065
:1001F000F701EE0FFF1FEE0FFF1FE853FF4F2081A7
:10020000318142815381211531054105510529F480
:100210008AE690E00E94B20476C00B2D10E0000F39
:10022000111F000F111F080D191DEE0CFF1CEE0C05
:10023000FF1C84EC90E0E80EF91ED7016D917D91D2
:100240008D919C910E94EC05F80159C06B2D70E0D6
:10025000660F771F660F771F680D791DEE0CFF1C68
:10026000EE0CFF1CF701EC53FF4F208131814281DE
:100270005381FB0180819181A281B381280F391FB5
:100280004A1F5B1F88EC90E0E80EF91EF7018081A1
:100290009181A281B381280F391F4A1F5B1FDB01A7
:1002A0002D933D934D935C9313972DC0EB2DF0E070
:1002B000EE0FFF1FEE0FFF1FE80DF91DEE0CFF1CE8
:1002C000EE0CFF1CD701AC53BF4F2081318142811E
:1002D00053818D919D910D90BC91A02D281B390BC0
:1002E0004A0B5B0B88EC90E0E80EF91ED701ED900D
:1002F000FD900D911C912E193F09400B510B20834D
:10030000318342835383B394A394EA2CFF24F701EF
:10031000E558FF4FE081EE2309F032CF0894C11C6D
:10032000D11CBFE7CB16B0E0DB0611F0AA24EDCF5D
:10033000FE01319620E030E0AE0143585F4F8081EE
:100340009181280F391F3496E417F507C1F7C901C9
:100350000E947700A0960FB6F894DEBF0FBECDBF07
:10036000CF91DF911F910F91FF90EF90DF90CF9091
:10037000BF90AF909F908F9008951F93CF93DF937E
:1003800010E0C0E9D1E03AC00E946F03833619F44F
:100390000E94740533C00E946F03882389F00E9475
:1003A0006F03E12FF0E0EE0FFF1FEE0FFF1FE0568F
:1003B000FF4F90E0A0E0B0E080839183A283B383FD
:1003C000E12FF0E0EE0FFF1FEE0FFF1FE056FF4F93
:1003D00080819181A281B3818A309105A105B10507
:1003E00018F40E94BF0402C00E941F0480ED97E031
:1003F000FE013197F1F70197D9F71F5F0E946F0354
:100400008D3309F0C1CFE12FF0E0EE0FFF1FEE0FAB
:10041000FF1FE056FF4F1082118212821382DF917C
:10042000CF911F910895CF93DF930E949605C0E965
:10043000D1E00E94BD0188E893E1FE013197F1F718
:100440000197D9F70E947405F4CF683008F070C0A6
:10045000843008F06DC0813009F1813030F0823095
:10046000B1F1833009F064C04BC0413059F42AB374
:1004700081E090E002C0880F991F6A95E2F7282B6F
:100480002ABB08952AB381E090E002C0880F991F2B
:100490006A95E2F7809582238ABB0895413059F42A
:1004A00027B381E090E002C0880F991F6A95E2F7B8
:1004B000282B27BB089527B381E090E002C0880F66
:1004C000991F6A95E2F78095822387BB0895413092
:1004D00059F424B381E090E002C0880F991F6A9517
:1004E000E2F7282B24BB089524B381E090E002C0FA
:1004F000880F991F6A95E2F78095822384BB08953F
:10050000413059F421B381E090E002C0880F991F77
:100510006A95E2F7282B21BB089521B381E090E092
:1005200002C0880F991F6A95E2F78095822381BBEC
:100530000895843008F070C0683008F06DC08130D4
:1005400009F1813030F08230B1F1833009F064C0BC
:100550004BC0413059F42BB381E090E002C0880FCA
:10056000991F6A95E2F7282B2BBB08952BB381E0E6
:1005700090E002C0880F991F6A95E2F78095822368
:100580008BBB0895413059F428B381E090E002C05C
:10059000880F991F6A95E2F7282B28BB089528B386
:1005A00081E090E002C0880F991F6A95E2F780957C
:1005B000822388BB0895413059F425B381E090E04F
:1005C00002C0880F991F6A95E2F7282B25BB089572
:1005D00025B381E090E002C0880F991F6A95E2F789
:1005E0008095822385BB0895413059F422B381E080
:1005F00090E002C0880F991F6A95E2F7282B22BB72
:10060000089522B381E090E002C0880F991F6A9597
:10061000E2F78095822382BB0895843018F5683014
:1006200008F5813049F0813028F0823039F083308C
:10063000C9F406C029B305C026B303C023B301C063
:1006400020B381E090E0062E02C0880F991F0A9423
:10065000E2F730E08223932302C0959587956A954F
:10066000E2F7089580E00895843080F4813049F005
:10067000813028F0823039F0833041F406C06ABB03
:10068000089567BB089564BB089561BB08958430E5
:1006900080F4813049F0813028F0823039F08330A5
:1006A00041F406C06BBB089568BB089565BB08950F
:1006B00062BB0895843088F4813049F0813028F09D
:1006C000823039F0833049F406C089B3089586B387
:1006D000089583B3089580B3089580E00895EF925C
:1006E000FF920F931F93CF93DF9381E064E040E08C
:1006F0000E94250281E065E040E00E94250281E041
:1007000066E040E00E94250281E067E040E00E9450
:10071000250283E062E040E00E94250283E063E07E
:1007200040E00E94250283E064E040E00E94250250
:1007300083E065E040E00E942502EE2400E0C0E294
:10074000DEE401C0E02E84E0F82EFE0C81E06F2D87
:1007500041E00E94250281E06F2D40E00E94990255
:1007600010E01E5F83E0612F0E940D03612F615036
:10077000882309F050C0802F880F880F860F88309B
:1007800091F1893080F4843031F1853038F4823051
:10079000E1F08330F0F48130B9F519C08630F9F01A
:1007A0008730F8F41AC08C3031F18D3028F48A305B
:1007B000F1F08B30F0F419C08E3009F18E30E8F092
:1007C0008F30F9F0803101F51EC088E01DC087E050
:1007D0001BC089E019C085E217C084E015C085E020
:1007E00013C086E011C08AE20FC081E00DC082E034
:1007F0000BC083E009C08DE207C083E605C080E03E
:1008000003C08DE301C08BE2DF91CF911F910F9167
:10081000FF90EF900895162F643009F0A2CF81E089
:100820006F2D40E00E942502CE010197F1F70E2DB9
:100830000F5F043008F486CFEE2400E084CFDF920F
:10084000EF92FF920F931F93D82E80E061E041E07A
:100850000E949902E0EAEE2EEFE0FE2EC70101971A
:10086000F1F780E062E041E00E949902C701019740
:10087000F1F70D2D10E0A8014071507074E055950E
:1008800047957A95E1F780E063E00E949902A8011C
:100890004072507065E0559547956A95E1F780E0A4
:1008A00064E00E949902A8014074507036E05595AA
:1008B00047953A95E1F780E065E00E9499024D2D59
:1008C000441F4427441F80E066E00E949902C7014C
:1008D0000197F1F780E062E040E00E949902C701D1
:1008E0000197F1F780E062E041E00E949902C701C0
:1008F0000197F1F781E0D82280E063E04D2D0E945E
:100900009902A801427050705595479580E064E0C7
:100910000E949902A80144705070559547955595CD
:10092000479580E065E00E9499020870107083E0AE
:10093000159507958A95E1F780E066E0402F0E94C3
:100940009902C7010197F1F780E062E040E00E9460
:100950009902C7010197F1F71F910F91FF90EF9056
:10096000DF900895CF93DF93EC0103C00E941F0432
:10097000219688818823D1F7DF91CF9108950F9335
:100980001F93DF93CF93CDB7DEB760970FB6F89480
:10099000DEBF0FBECDBF8E010F5F1F4FB8014AE013
:1009A00050E00E940E06C8010E94B20460960FB685
:1009B000F894DEBF0FBECDBFCF91DF911F910F9195
:1009C0000895DF92EF92FF920F931F93D82E80E04D
:1009D00061E040E00E94990230EAE32E3FE0F32E0E
:1009E000C7010197F1F780E062E041E00E949902BF
:1009F000C7010197F1F70D2D10E0A801407150706B
:100A000024E0559547952A95E1F780E063E00E9440
:100A10009902A8014072507095E0559547959A95B6
:100A2000E1F780E064E00E949902A80140745070F0
:100A300086E0559547958A95E1F780E065E00E944C
:100A400099024D2D441F4427441F80E066E00E9418
:100A50009902C7010197F1F780E062E040E00E944F
:100A60009902C7010197F1F780E062E041E00E943E
:100A70009902C7010197F1F781E0D82280E063E095
:100A80004D2D0E949902A8014270507055954795CE
:100A900080E064E00E949902A8014470507055956E
:100AA00047955595479580E065E00E94990208704A
:100AB0001070F3E015950795FA95E1F780E066E090
:100AC000402F0E949902C7010197F1F780E062E090
:100AD00040E00E949902C7010197F1F71F910F9121
:100AE000FF90EF90DF90089581E00E94E104089567
:100AF000813039F0813050F0823029F0833031F488
:100B000004C0605C03C0605F01C0605B862F8068CA
:100B10000E94E10408950F931F938A010E947805B3
:100B2000C8010E94B2041F910F91089580E061E016
:100B300041E00E94250280E062E041E00E9425023F
:100B400088EC90E020E931E0F9013197F1F7019765
:100B5000D9F780E063E041E00E94250280E064E094
:100B600041E00E94250280E065E041E00E9425020C
:100B700080E066E041E00E94250283E30E94E104F8
:100B800082E30E94E10488E20E94E1048CE00E947A
:100B9000E10481E00E94E1040895629FD001739F07
:100BA000F001829FE00DF11D649FE00DF11D929F09
:100BB000F00D839FF00D749FF00D659FF00D992748
:100BC000729FB00DE11DF91F639FB00DE11DF91F6C
:100BD000BD01CF0111240895A1E21A2EAA1BBB1B4F
:100BE000FD010DC0AA1FBB1FEE1FFF1FA217B307F9
:100BF000E407F50720F0A21BB30BE40BF50B661F0F
:100C0000771F881F991F1A9469F7609570958095D2
:100C100090959B01AC01BD01CF010895FB019F019F
:100C2000E8944230C4F04532B4F44A3029F497FBDA
:100C30001EF4909581959F4F642F77270E943F0661
:100C4000805D8A330CF0895D8193CB010097A1F719
:100C500016F45DE251931082C9010C942F06DC0159
:100C6000FC01672F71917723E1F7329704C07C91E3
:100C70006D9370836291AE17BF07C8F30895AA1BE6
:100C8000BB1B51E107C0AA1FBB1FA617B70710F077
:100C9000A61BB70B881F991F5A95A9F780959095A9
:0A0CA000BC01CD010895F894FFCFC8
:100CAA00526573756C74203D20004552524F522094
:100CBA0030204469766973696F6E002A2F2B2D00E4
:00000001FF
